{
  "_format": "hh-sol-artifact-1",
  "contractName": "DonationLedger",
  "sourceName": "contracts/DonationLedger.sol",
  "abi": [
    {
      "anonymous": false,
      "inputs": [
        {
          "indexed": true,
          "internalType": "address",
          "name": "user",
          "type": "address"
        },
        {
          "indexed": false,
          "internalType": "string",
          "name": "campaign",
          "type": "string"
        },
        {
          "indexed": false,
          "internalType": "bool",
          "name": "success",
          "type": "bool"
        },
        {
          "indexed": false,
          "internalType": "uint256",
          "name": "timestamp",
          "type": "uint256"
        },
        {
          "indexed": false,
          "internalType": "bytes32",
          "name": "txHash",
          "type": "bytes32"
        }
      ],
      "name": "TransactionLogged",
      "type": "event"
    },
    {
      "inputs": [
        {
          "internalType": "string",
          "name": "campaign",
          "type": "string"
        }
      ],
      "name": "donate",
      "outputs": [],
      "stateMutability": "payable",
      "type": "function"
    }
  ],
  "bytecode": "0x608060405234801561001057600080fd5b50610539806100206000396000f3fe60806040526004361061001e5760003560e01c8063b5aebc8014610023575b600080fd5b61003d6004803603810190610038919061025e565b61003f565b005b60003411610082576040517f08c379a000000000000000000000000000000000000000000000000000000000815260040161007990610304565b60405180910390fd5b3373ffffffffffffffffffffffffffffffffffffffff167fc6223c3b62037380fe2be6061d0c02378630d1d6ebb4f525b1aff92a69486587826001423342346040516020016100d3939291906103c9565b604051602081830303815290604052805190602001206040516100f994939291906104b7565b60405180910390a250565b6000604051905090565b600080fd5b600080fd5b600080fd5b600080fd5b6000601f19601f8301169050919050565b7f4e487b7100000000000000000000000000000000000000000000000000000000600052604160045260246000fd5b61016b82610122565b810181811067ffffffffffffffff8211171561018a57610189610133565b5b80604052505050565b600061019d610104565b90506101a98282610162565b919050565b600067ffffffffffffffff8211156101c9576101c8610133565b5b6101d282610122565b9050602081019050919050565b82818337600083830152505050565b60006102016101fc846101ae565b610193565b90508281526020810184848401111561021d5761021c61011d565b5b6102288482856101df565b509392505050565b600082601f83011261024557610244610118565b5b81356102558482602086016101ee565b91505092915050565b6000602082840312156102745761027361010e565b5b600082013567ffffffffffffffff81111561029257610291610113565b5b61029e84828501610230565b91505092915050565b600082825260208201905092915050565b7f446f6e6174696f6e206d7573742062652067726561746572207468616e203000600082015250565b60006102ee601f836102a7565b91506102f9826102b8565b602082019050919050565b6000602082019050818103600083015261031d816102e1565b9050919050565b600073ffffffffffffffffffffffffffffffffffffffff82169050919050565b600061034f82610324565b9050919050565b60008160601b9050919050565b600061036e82610356565b9050919050565b600061038082610363565b9050919050565b61039861039382610344565b610375565b82525050565b6000819050919050565b6000819050919050565b6103c36103be8261039e565b6103a8565b82525050565b60006103d58286610387565b6014820191506103e582856103b2565b6020820191506103f582846103b2565b602082019150819050949350505050565b600081519050919050565b60005b8381101561042f578082015181840152602081019050610414565b60008484015250505050565b600061044682610406565b61045081856102a7565b9350610460818560208601610411565b61046981610122565b840191505092915050565b60008115159050919050565b61048981610474565b82525050565b6104988161039e565b82525050565b6000819050919050565b6104b18161049e565b82525050565b600060808201905081810360008301526104d1818761043b565b90506104e06020830186610480565b6104ed604083018561048f565b6104fa60608301846104a8565b9594505050505056fea26469706673582212206ca79baac874dc7608f4cad44a022f62c0502166b68fdd05d6167f4ffcd720b064736f6c63430008140033",
  "linkReferences": {},
  "deployedLinkReferences": {}
}